:1000000045C0000017C400005FC000005DC00000D4
:100010005BC0000059C0000057C0000055C0000080
:1000200053C0000051C000004FC000004DC0000090
:100030004BC0000049C0000047C0000045C00000A0
:1000400053C0000041C000003FC000003DC00000A0
:100050002BC2000039C0000037C0000035C00000CE
:1000600033C0000031C000002FC000002DC00000D0
:100070002BC0000029C0000027C0000025C00000E0
:1000800023C0000021C000001FC0000011241FBEBB
:10009000CFEFD0E4DEBFCDBF12E0A0E0B1E0E6E6F6
:1000A000F3E100E00BBF02C007900D92A438B10746
:1000B000D9F726E1A4E8B2E001C01D92A23CB20744
:1000C000E1F7CAD70C94B1099BCF84B5826084BD97
:1000D00085B5836085BDEEE6F0E080818260808337
:1000E00016BC8AEF87BD08951F920F920FB60F922C
:1000F00011242F933F934F935F936F937F938F932D
:100100009F93AF93BF93F8948091AB029091AC0210
:1001100080369A4E28F01092AC021092AB0209C0C1
:100120008091AB029091AC0201969093AC028093C7
:10013000AB028091A3029091A40280369A4E28F0DF
:100140001092A4021092A30209C08091A302909180
:10015000A40201969093A4028093A30280919D0231
:1001600090919E0280369A4E28F010929E02109234
:100170009D0209C080919D0290919E0201969093EC
:100180009E0280939D024091AB025091AC029A0175
:10019000369527953695279536952795A5ECB0E2A7
:1001A0000E943909929582958F7089279F708927BF
:1001B00068EE73E0869F9001879F300D969F300D0B
:1001C000112442175307D9F48091A9029091AA02F1
:1001D00001969093AA028093A9028091A102909126
:1001E000A20201969093A2028093A10280919D02A7
:1001F00090919E02019690939E0280939D02809121
:10020000A9029091AA02CC97D0F08091A702909178
:10021000A80201969093A8028093A7021092AA02C6
:100220001092A90280919F029091A0020196909352
:10023000A00280939F021092A2021092A1028091CC
:10024000A7029091A802CC9788F08091A502909186
:10025000A60201969093A6028093A5021092A8028E
:100260001092A7021092AA021092A9027894BF914C
:10027000AF919F918F917F916F915F914F913F913E
:100280002F910F900FBE0F901F9018951092AC02F7
:100290001092AB021092AA021092A9021092A80228
:1002A0001092A7021092A6021092A5020895F89447
:1002B0009093C5008093C40088E98093C10086E0D4
:1002C0008093C20078940895E0ECF0E0908195FF6F
:1002D000FDCF8093C6000895CF93DF93EC01888112
:1002E000882329F02196F0DF89918111FCCFDF91DD
:1002F000CF91089520919B0230919C0280919902A8
:1003000090919A0228173907E9F0E0919B02F09149
:100310009C02E352F34F808120919B0230919C021A
:100320002F5F3F4F30939C0220939B0220919B02B2
:1003300030919C02203D374034F010929C02109284
:100340009B02089580E00895EF92FF920F931F9310
:10035000CF93DF93CDB7DEB7C05DD7400FB6F8942B
:10036000DEBF0FBECDBF7C01042F8091AB02909108
:10037000AC029093BE168093BD161092AD022091F0
:10038000AB023091AC02281B390B62177307B8F728
:10039000F8948091990290919A028093AD02809195
:1003A000AD02882371F010E0A5DFE1E0F0E0EC0F92
:1003B000FD1FE10FF11D80831F5F8091AD021817B3
:1003C00098F3002309F45CC08091AD02882399F072
:1003D00080E0282F30E0E1E0F0E0EC0FFD1FE20FBD
:1003E000F31F9081F901E95BFC4F90838F5F90913F
:1003F000AD02891770F38091AD0290E0909398025E
:10040000809397023DC0E1E0F0E0EC0FFD1FE80FA4
:10041000F11D9081931303C04F5F5F4F05C08F5F45
:100420009091AD02891778F34130510561F4109233
:100430009A021092990210929C0210929B02789458
:1004400081E090E023C02F5F822F90E0029764F458
:100450008091AD02882341F3F701E20FF11D308155
:100460003617D1F2872FDBCF10929A0210929902A1
:1004700010929C0210929B02789480E090E006C05B
:10048000698120E040E050E070E0E2CFC053D84FF7
:100490000FB6F894DEBF0FBECDBFDF91CF911F9195
:1004A0000F91FF90EF9008951F920F920FB60F9249
:1004B00011240BB60F922F938F939F93EF93FF937B
:1004C000E0919902F0919A028091C600E352F34FB5
:1004D00080838091990290919A02019690939A025A
:1004E000809399028091990290919A02803D974061
:1004F00024F010929A0210929902FF91EF919F912D
:100500008F912F910F900BBE0F900FBE0F901F90E9
:100510001895ECE1FBE081E3808389E3818382E34A
:1005200082838EE283831092AD0280919702909134
:10053000980218161906C4F580E090E020E030918A
:10054000AD02343090F4E091AD02DC01A95BBC4F08
:100550008C91F0E0E65AFD4F908198131BC080917A
:10056000AD028F5F8093AD0215C0FC01E95BFC4FCB
:1005700030813232C9F0E091AD02DC01A95BBC4FA1
:100580008C91F0E0E45EF44F80838091AD028F5F48
:100590008093AD022F5F822F90E04091970250919F
:1005A0009802841795075CF20895EF92FF920F93DB
:1005B0001F93CF93DF93CDB7DEB764970FB6F89450
:1005C000DEBF0FBECDBF82E091E086DE40E068E88E
:1005D00073E185E692E0B8DE892B09F448C080918A
:1005E00096024AE0BE016F5F7F4F90E087D680E3BE
:1005F00091E072DECE0101966FDE87E691E06CDE5F
:1006000040E068E873E188E592E09EDE892B59F1CD
:10061000809196028823A1F00F2EF1EBEF2EF2E0ED
:10062000FF2EF02D00E010E0F70181917F014CDEFC
:100630000F5F1F4F8091960290E008171907A4F3EF
:1006400040E068E873E180E592E07EDE892B69F0A6
:1006500041E060E177E286E492E076DE21E0892BFA
:1006600039F020E005C020E003C020E001C020E018
:10067000822F64960FB6F894DEBF0FBECDBFDF9118
:10068000CF911F910F91FF90EF9008951092AD02BE
:10069000E5EEF1E0A1EBB2E025E432E081918D934B
:1006A0008091AD028F5F8093AD02E217F307B1F73F
:1006B0008091AD02809396020AC0E8DD2FEF81EEB3
:1006C00094E0215080409040E1F700C000006DDFD1
:1006D000882399F381E008958EE391E0FDDD40E009
:1006E00068EE73E085E692E02FDE21E0892B09F4C5
:1006F00020E0822F089583E491E0EEDD40E060ED9C
:1007000077E08FE592E020DE21E0892B09F420E0FC
:10071000822F08958CE491E0DFDD81E3D5DD87E66B
:1007200091E0DADD40E068EE73E085E692E00CDE11
:1007300021E0892B09F420E0822F089587E591E0DC
:10074000CBDD81E792E0C8DD82E691E0C5DD88E699
:1007500092E0C2DD86E691E0BFDD40E060ED77E04B
:1007600085E692E0F1DD21E0892B09F420E0822F7B
:1007700008958AE691E0B0DD41E060EA7FE08AE535
:1007800092E0E2DD892B19F0C4DE81E0089580E07B
:10079000089585E791E0A0DD81E396DD87E691E0AD
:1007A0009BDD40E068E873E185E692E0CDDD21E085
:1007B000892B09F420E0822F0895CF93DF9300D096
:1007C00000D01F92CDB7DEB761DF811116C02AC0FD
:1007D00001968130910539F42081DA01A95EB44F88
:1007E0002C934F5F5F4F20812A3391F36F5F7F4FD0
:1007F000603D27E0720739F40AC060E070E040E035
:1008000050E080E090E0FB01E95BFC4FECCF809191
:100810001C0B4AE0BE016F5F7F4F90E06FD5CE01A9
:1008200001965ADD0F900F900F900F900F90DF916F
:10083000CF9108951F920F920FB60F9211240BB60D
:100840000F922F933F934F935F936F937F938F9369
:100850009F93AF93BF93EF93FF93F89480919D0282
:1008600090919E02909391028093900220919D021C
:1008700030919E0240E050E060E67AEE80E090E049
:10088000DCD4CA01B9018BD46093920270939302B5
:10089000809394029093950210929E0210929D0272
:1008A00081E080938F027894FF91EF91BF91AF9197
:1008B0009F918F917F916F915F914F913F912F9178
:1008C0000F900BBE0F900FBE0F901F9018959CB508
:1008D000937F892B8CBD08959CB5282F23709C7F16
:1008E000922B9CBD9DB582FB882780F99E7F892B2A
:1008F0008DBD0895811104C08CB580628CBD0895B2
:100900008CB58F7D8CBD089580EB84B980E58CBD5E
:100910000895559AE0E8F0E080818064808381E06A
:1009200090E09093890080938800E1E8F0E0808176
:1009300089688083089580E61EBC00000DB407FE20
:10094000FDCF9EB58150C1F708958FE39CE90197D3
:10095000F1F700C0000080E185B98FE39CE90197C1
:10096000F1F700C0000015B88FE39CE90197F1F79B
:1009700000C0000008954F925F926F927F928F9215
:100980009F92AF92BF92CF92DF92EF92FF920F931E
:100990001F93CF93DF93E0918C02F0918D02E3558A
:1009A000FB4E108225E030E0C7E0D0E006E010E02A
:1009B000812C912C54018394F90133230CF4379644
:1009C000F595E795F595E795F595E795C9010597AF
:1009D000BE0120D4E62EF72EDB01A45DB44F4C916E
:1009E00050E0B801681B790BDA0102C0B595A795F4
:1009F0006A95E2F7A0FF1FC0DF01A355BB4EC901F6
:100A000087709078992324F40197886F9F6F0196DF
:100A1000AE01481B590BCA01B501A40104C0440F23
:100A2000551F661F771F8A95D2F7E355FB4E8081CD
:100A3000482B4C9320C0DF01A355BB4EC9018770E2
:100A40009078992324F40197886F9F6F0196BE01D7
:100A5000681B790BCB01B501A40104C0440F551FDD
:100A6000661F771F8A95D2F74095E355FB4E90811C
:100A7000842F89238C932F5F3F4F253571E03707F3
:100A800009F09ACFE0928A02F0928B0225E531E0DC
:100A90000F2EF3E0EF2EF12CF02D02E010E0C7E076
:100AA000D0E0812C912C54018394F90133230CF470
:100AB0003796F595E795F595E795F595E795C9018D
:100AC00085559140B701A6D3D62EC72E6154794ED5
:100AD000DB014C9150E0B801681B790B02C05595C1
:100AE00047956A95E2F740FF1FC0AF0143555B4E43
:100AF000C90187709078992324F40197886F9F6FBC
:100B00000196DE01A81BB90B2401350104C0440C79
:100B1000551C661C771CAA95D2F7E355FB4E8081C5
:100B2000482AFA01408220C0AF0143555B4EC901FB
:100B300087709078992324F40197886F9F6F0196AE
:100B4000BE01681B790B2401350104C0440C551CFF
:100B5000661C771C6A95D2F74094E355FB4E908152
:100B6000842D8923DA018C932F5F3F4F2E35B1E01E
:100B70003B0709F09ACFD0928802C09289022EE5F5
:100B800031E0C7E0D0E006E010E0812C912C540168
:100B90008394F90133230CF43796F595E795F59591
:100BA000E795F595E795C9018E559140BE0132D381
:100BB000E62EF72EDB01A255BD4F4C9150E0B80157
:100BC000681B790BDA0102C0B595A7956A95E2F723
:100BD000A0FF1FC0DF01A355BB4EC90187709078ED
:100BE000992324F40197886F9F6F0196AE01481BEB
:100BF000590BCA01B501A40104C0440F551F661F5B
:100C0000771F8A95D2F7E355FB4E8081482B4C9392
:100C100020C0DF01A355BB4EC9018770907899238E
:100C200024F40197886F9F6F0196BE01681B790BB2
:100C3000CB01B501A40104C0440F551F661F771FE7
:100C40008A95D2F74095E355FB4E9081842F8923F6
:100C50008C932F5F3F4F233771E0370709F099CF0F
:100C6000E0928602F092870223E731E00F2EF5E052
:100C7000EF2EF12CF02D04E010E0C7E0D0E0812C45
:100C8000912C54018394F90133230CF43796F59594
:100C9000E795F595E795F595E795C9018357914057
:100CA000B701B8D2D62EC72E645A744FDB014C91CF
:100CB00050E0B801681B790B02C0559547956A95BD
:100CC000E2F740FF21C0AF0143555B4EC901877079
:100CD0009078992324F40197886F9F6F0196DE0125
:100CE000A81BB90B2401350104C0440C551C661C1B
:100CF000771CAA95D2F7CF0183559B4EDC018C91CE
:100D0000482ADA014C9222C0AF0143555B4EC9011B
:100D100087709078992324F40197886F9F6F0196CC
:100D2000BE01681B790B2401350104C0440C551C1D
:100D3000661C771C6A95D2F74094CF0183559B4E71
:100D4000DC019C91842D8923DA018C932F5F3F4F26
:100D50002837B1E03B0709F096CFF0938D02E0937E
:100D60008C02D0928402C0928502DF91CF911F91B4
:100D70000F91FF90EF90DF90CF90BF90AF909F903A
:100D80008F907F906F905F904F90089580910101B8
:100D90008EBD00000DB407FEFDCF8EB58091000121
:100DA0008EBD00000DB407FEFDCF8EB5EDEAF4E177
:100DB0002CED34E181918EBD00000DB407FEFDCF16
:100DC0008EB5E217F307B1F7C0CD0895EDE3F5E175
:100DD0008DEB96E11192119211921192E817F90799
:100DE000C9F7EDEAF4E18CED94E11192E817F90707
:100DF000E1F7ECE2FBE02CE53BE088E08193E217D1
:100E0000F307E1F7EFEBF6E188E0808381838283EB
:100E1000EEEAF2E08083818382838FE180935C0B32
:100E2000249A15B876DD80E052DD80E055DD81E062
:100E300061DD6ADDA0DDAACF08956F927F928F9267
:100E40009F92AF92BF92CF92DF92EF92FF920F9359
:100E50001F93CF93DF93CDB7DEB7A8970FB6F89463
:100E6000DEBF0FBECDBF05E811E00F2EFDE58F2ED2
:100E7000FBE09F2EF02D0F2EF5EE6F2EF1E07F2E72
:100E8000F02DA12CB12C38C0F8018081482F50E002
:100E900060E070E0F70141935193619371937F019A
:100EA0004AE0BE016B5E7F4F90E028D2CE014596AE
:100EB00013DA8AE309DA4AE0BE016F5F7F4FC501AA
:100EC0001DD2CE01019608DA8FE39CE90197F1F774
:100ED00000C0000080E891E0FFD90E5F1F4FC016F0
:100EE000D10691F69FEFA91AB90AE8E18E0E911C7E
:100EF00086016C147D0431F06801F6E0CF0ED11C40
:100F00007401C2CFA8960FB6F894DEBF0FBECDBF56
:100F1000DF91CF911F910F91FF90EF90DF90CF90D5
:100F2000BF90AF909F908F907F906F900895EDE36A
:100F3000F5E12DEB36E1808134968EBD00000DB4D5
:100F400007FEFDCF8EB5E217F307A9F70895EDE38D
:100F5000F5E18DEB96E11192119211921192E81741
:100F6000F907C9F70895869FD001879FB00D969F16
:100F7000B00D1124A49FF001A59FF00DB49FF00DBA
:100F80001124E036F1050CF063C0FB01EE0FFF1FEA
:100F90006E0F7F1F660F771FA0E6A89FF001A99F25
:100FA000F00D1124E60FF71FE40FF51FEE0FFF1FE2
:100FB000EE0FFF1FE35AF44F40815181628173812C
:100FC000181619061CF5FA01EE0FFF1FEE0FFF1F92
:100FD000E35CFA4E822F90E0A0E0B0E08083918342
:100FE000A283B3834F5F5F4F6F4F7F4F440F551FF7
:100FF000440F551FFA01E35CFA4E832F90E0A0E006
:10100000B0E080839183A283B3830895FA01EE0F49
:10101000FF1FEE0FFF1FE35CFA4E822F90E0A0E06F
:10102000B0E080839183A283B38341505109610969
:101030007109440F551F440F551FFA01E35CFA4E26
:10104000832F90E0A0E0B0E080839183A283B383FC
:1010500008956DDF7ACC08952FEF33EC89E02150AD
:1010600030408040E1F700C000002FD8789487E638
:1010700090E01DD99FEF29E638E1915020403040A3
:10108000E1F700C0000028DB8FEF93ED20E38150F3
:1010900090402040E1F700C000002DDB3FEF8BE7E0
:1010A00092E9315080409040E1F700C0000032DB0F
:1010B0002FEF37EA81E6215030408040E1F700C051
:1010C000000009C09FEF23ED30E3915020403040F5
:1010D000E1F700C0000032DB8823A1F38AEA96EE34
:1010E00026E931E08150904020403040D9F700009F
:1010F00040DB8FEF93E224EF815090402040E1F7F6
:1011000000C0000046DB8823E9F33FEF83E294EF61
:10111000315080409040E1F700C00000B7D809C0CE
:101120002FEF31EE84E0215030408040E1F700C0E5
:101130000000ACDA8823A1F340DB48DE7EDEA6D8CF
:101140001092A4021092A30210929E0210929D028D
:10115000C091A902D091AA02EEDB80918E028EBDD1
:1011600000000DB407FEFDCF8EB58091A9029091CD
:10117000AA028C1B9D0B019771F4E9DE2FEF3FEF64
:1011800040E050E060E070E080E090E0ECDEC09194
:10119000A902D091AA025DDFDFCFE89409C097FBD6
:1011A0003EF490958095709561957F4F8F4F9F4F3E
:1011B0009923A9F0F92F96E9BB279395F695879582
:1011C00077956795B795F111F8CFFAF4BB0F11F445
:1011D00060FF1BC06F5F7F4F8F4F9F4F16C08823EC
:1011E00011F096E911C0772321F09EE8872F762F22
:1011F00005C0662371F096E8862F70E060E02AF063
:101200009A95660F771F881FDAF7880F969587954E
:1012100097F9089597FB072E16F4009406D077FDF2
:1012200008D036D007FC05D03EF4909581959F4FAD
:101230000895709561957F4F0895052E97FB16F4DC
:1012400000940FD057FD05D037D007FC02D046F4EC
:1012500008C050954095309521953F4F4F4F5F4FB7
:10126000089590958095709561957F4F8F4F9F4F12
:101270000895A29FB001B39FC001A39F700D811D6F
:101280001124911DB29F700D811D1124911D08958F
:10129000AA1BBB1B51E107C0AA1FBB1FA617B7079C
:1012A00010F0A61BB70B881F991F5A95A9F78095B8
:1012B0009095BC01CD010895A1E21A2EAA1BBB1B7B
:1012C000FD010DC0AA1FBB1FEE1FFF1FA217B30712
:1012D000E407F50720F0A21BB30BE40BF50B661F28
:1012E000771F881F991F1A9469F7609570958095EC
:1012F00090959B01AC01BD01CF010895BB274A30F9
:1013000031F4992322F4BDE2909581959F4F01C05D
:10131000BB27FB015527AA27880F991FAA1FA417CF
:1013200010F0A41B83955051B9F7A05DAA3308F0C3
:10133000A95DA193009779F7B111B1931192CB01F7
:1013400000C0DC01FC01672F71917723E1F7329730
:1013500004C07C916D9370836291AE17BF07C8F390
:061360000895F894FFCF90
:10136600960141542B43495053544152543D302C1D
:1013760022544350222C226170692E7468696E676C
:10138600737065616B2E636F6D222C38300D0A0009
:1013960041542B43495053454E443D302C00415453
:1013A6000D0A0041542B5253540D0A0041542B434D
:1013B600574D4F44453D0041542B43574A41503DFC
:1013C6002200222C2200220D0A0041542B434946BA
:1013D60053520D0A0041542B4349504D55583D0078
:1013E60042420D0A002A2B2C2D2E2F1213141516ED
:1013F600172425262728290C0D0E0F10110607087D
:10140600090A0B1E1F2021222300010203040518CE
:10141600191A1B1C1D30313233343548494A4B4C9E
:101426004D363738393A3B4E4F5051525354555634
:101436005758593C3D3E3F40415A5B5C5D5E5F42BA
:1014460043444546474745542068747470733A2FA1
:101456002F6170692E7468696E67737065616B2E93
:10146600636F6D2F617070732F7468696E6768742F
:1014760074702F73656E645F726571756573743F02
:101486006170695F6B65793D553757524D5A5A42BF
:101496004F474B4C3552534B20485454502F312E06
:1014A600300D0A0D0A00646966666572656E740021
:1014B60053454E44204F4B003E003139322E0072C8
:1014C60065616479004F4B00303333393938356103
:1014D60000537072696E7457694669612D314545CE
:0414E600333142005C
:00000001FF
